{
  "_format": "hh-sol-artifact-1",
  "contractName": "Dwitter",
  "sourceName": "contracts/Dwitter.sol",
  "abi": [
    {
      "inputs": [
        {
          "internalType": "uint256",
          "name": "",
          "type": "uint256"
        }
      ],
      "name": "dweets",
      "outputs": [
        {
          "internalType": "address",
          "name": "author",
          "type": "address"
        },
        {
          "internalType": "string",
          "name": "content",
          "type": "string"
        },
        {
          "internalType": "uint256",
          "name": "timeStamp",
          "type": "uint256"
        },
        {
          "internalType": "uint256",
          "name": "likes",
          "type": "uint256"
        }
      ],
      "stateMutability": "view",
      "type": "function"
    },
    {
      "inputs": [],
      "name": "getDweets",
      "outputs": [
        {
          "components": [
            {
              "internalType": "address",
              "name": "author",
              "type": "address"
            },
            {
              "internalType": "string",
              "name": "content",
              "type": "string"
            },
            {
              "internalType": "uint256",
              "name": "timeStamp",
              "type": "uint256"
            },
            {
              "internalType": "uint256",
              "name": "likes",
              "type": "uint256"
            }
          ],
          "internalType": "struct Dwitter.Dweet[]",
          "name": "",
          "type": "tuple[]"
        }
      ],
      "stateMutability": "view",
      "type": "function"
    },
    {
      "inputs": [
        {
          "internalType": "address",
          "name": "_wallet",
          "type": "address"
        }
      ],
      "name": "getUser",
      "outputs": [
        {
          "components": [
            {
              "internalType": "address",
              "name": "wallet",
              "type": "address"
            },
            {
              "internalType": "string",
              "name": "name",
              "type": "string"
            },
            {
              "internalType": "string",
              "name": "username",
              "type": "string"
            },
            {
              "internalType": "string",
              "name": "bio",
              "type": "string"
            },
            {
              "internalType": "string",
              "name": "avatar",
              "type": "string"
            }
          ],
          "internalType": "struct Dwitter.User",
          "name": "",
          "type": "tuple"
        }
      ],
      "stateMutability": "view",
      "type": "function"
    },
    {
      "inputs": [
        {
          "internalType": "string",
          "name": "_content",
          "type": "string"
        }
      ],
      "name": "postDweet",
      "outputs": [],
      "stateMutability": "nonpayable",
      "type": "function"
    },
    {
      "inputs": [
        {
          "internalType": "string",
          "name": "_username",
          "type": "string"
        },
        {
          "internalType": "string",
          "name": "_name",
          "type": "string"
        },
        {
          "internalType": "string",
          "name": "_bio",
          "type": "string"
        },
        {
          "internalType": "string",
          "name": "_avatar",
          "type": "string"
        }
      ],
      "name": "signup",
      "outputs": [],
      "stateMutability": "nonpayable",
      "type": "function"
    },
    {
      "inputs": [
        {
          "internalType": "address",
          "name": "",
          "type": "address"
        }
      ],
      "name": "usernames",
      "outputs": [
        {
          "internalType": "string",
          "name": "",
          "type": "string"
        }
      ],
      "stateMutability": "view",
      "type": "function"
    },
    {
      "inputs": [
        {
          "internalType": "string",
          "name": "",
          "type": "string"
        }
      ],
      "name": "users",
      "outputs": [
        {
          "internalType": "address",
          "name": "wallet",
          "type": "address"
        },
        {
          "internalType": "string",
          "name": "name",
          "type": "string"
        },
        {
          "internalType": "string",
          "name": "username",
          "type": "string"
        },
        {
          "internalType": "string",
          "name": "bio",
          "type": "string"
        },
        {
          "internalType": "string",
          "name": "avatar",
          "type": "string"
        }
      ],
      "stateMutability": "view",
      "type": "function"
    }
  ],
  "bytecode": "0x608060405234801561001057600080fd5b50611cb8806100206000396000f3fe608060405234801561001057600080fd5b506004361061007d5760003560e01c80636f77926b1161005b5780636f77926b14610105578063d7798e5b14610135578063ee91877c14610153578063fcf58fa5146101835761007d565b806337dc190c14610082578063675164a4146100b5578063689e1c03146100d1575b600080fd5b61009c60048036038101906100979190610f35565b61019f565b6040516100ac9493929190611042565b60405180910390f35b6100cf60048036038101906100ca91906111c3565b610287565b005b6100eb60048036038101906100e691906111c3565b61047d565b6040516100fc95949392919061120c565b60405180910390f35b61011f600480360381019061011a91906112a7565b610709565b60405161012c91906113b8565b60405180910390f35b61013d610a1d565b60405161014a919061150e565b60405180910390f35b61016d600480360381019061016891906112a7565b610b78565b60405161017a9190611530565b60405180910390f35b61019d60048036038101906101989190611552565b610c18565b005b600081815481106101af57600080fd5b90600052602060002090600402016000915090508060000160009054906101000a900473ffffffffffffffffffffffffffffffffffffffff16908060010180546101f890611658565b80601f016020809104026020016040519081016040528092919081815260200182805461022490611658565b80156102715780601f1061024657610100808354040283529160200191610271565b820191906000526020600020905b81548152906001019060200180831161025457829003601f168201915b5050505050908060020154908060030154905084565b6000600160003373ffffffffffffffffffffffffffffffffffffffff1673ffffffffffffffffffffffffffffffffffffffff16815260200190815260200160002080546102d390611658565b905011610315576040517f08c379a000000000000000000000000000000000000000000000000000000000815260040161030c906116fb565b60405180910390fd5b6000815111610359576040517f08c379a00000000000000000000000000000000000000000000000000000000081526004016103509061178d565b60405180910390fd5b608c8151111561039e576040517f08c379a0000000000000000000000000000000000000000000000000000000008152600401610395906117f9565b60405180910390fd5b600060405180608001604052803373ffffffffffffffffffffffffffffffffffffffff16815260200183815260200142815260200160008152509050600081908060018154018082558091505060019003906000526020600020906004020160009091909190915060008201518160000160006101000a81548173ffffffffffffffffffffffffffffffffffffffff021916908373ffffffffffffffffffffffffffffffffffffffff160217905550602082015181600101908161046291906119c5565b50604082015181600201556060820151816003015550505050565b6002818051602081018201805184825260208301602085012081835280955050505050506000915090508060000160009054906101000a900473ffffffffffffffffffffffffffffffffffffffff16908060010180546104dc90611658565b80601f016020809104026020016040519081016040528092919081815260200182805461050890611658565b80156105555780601f1061052a57610100808354040283529160200191610555565b820191906000526020600020905b81548152906001019060200180831161053857829003601f168201915b50505050509080600201805461056a90611658565b80601f016020809104026020016040519081016040528092919081815260200182805461059690611658565b80156105e35780601f106105b8576101008083540402835291602001916105e3565b820191906000526020600020905b8154815290600101906020018083116105c657829003601f168201915b5050505050908060030180546105f890611658565b80601f016020809104026020016040519081016040528092919081815260200182805461062490611658565b80156106715780601f1061064657610100808354040283529160200191610671565b820191906000526020600020905b81548152906001019060200180831161065457829003601f168201915b50505050509080600401805461068690611658565b80601f01602080910402602001604051908101604052809291908181526020018280546106b290611658565b80156106ff5780601f106106d4576101008083540402835291602001916106ff565b820191906000526020600020905b8154815290600101906020018083116106e257829003601f168201915b5050505050905085565b610711610ea6565b6002600160008473ffffffffffffffffffffffffffffffffffffffff1673ffffffffffffffffffffffffffffffffffffffff16815260200190815260200160002060405161075f9190611b25565b90815260200160405180910390206040518060a00160405290816000820160009054906101000a900473ffffffffffffffffffffffffffffffffffffffff1673ffffffffffffffffffffffffffffffffffffffff1673ffffffffffffffffffffffffffffffffffffffff1681526020016001820180546107de90611658565b80601f016020809104026020016040519081016040528092919081815260200182805461080a90611658565b80156108575780601f1061082c57610100808354040283529160200191610857565b820191906000526020600020905b81548152906001019060200180831161083a57829003601f168201915b5050505050815260200160028201805461087090611658565b80601f016020809104026020016040519081016040528092919081815260200182805461089c90611658565b80156108e95780601f106108be576101008083540402835291602001916108e9565b820191906000526020600020905b8154815290600101906020018083116108cc57829003601f168201915b5050505050815260200160038201805461090290611658565b80601f016020809104026020016040519081016040528092919081815260200182805461092e90611658565b801561097b5780601f106109505761010080835404028352916020019161097b565b820191906000526020600020905b81548152906001019060200180831161095e57829003601f168201915b5050505050815260200160048201805461099490611658565b80601f01602080910402602001604051908101604052809291908181526020018280546109c090611658565b8015610a0d5780601f106109e257610100808354040283529160200191610a0d565b820191906000526020600020905b8154815290600101906020018083116109f057829003601f168201915b5050505050815250509050919050565b60606000805480602002602001604051908101604052809291908181526020016000905b82821015610b6f57838290600052602060002090600402016040518060800160405290816000820160009054906101000a900473ffffffffffffffffffffffffffffffffffffffff1673ffffffffffffffffffffffffffffffffffffffff1673ffffffffffffffffffffffffffffffffffffffff168152602001600182018054610aca90611658565b80601f0160208091040260200160405190810160405280929190818152602001828054610af690611658565b8015610b435780601f10610b1857610100808354040283529160200191610b43565b820191906000526020600020905b815481529060010190602001808311610b2657829003601f168201915b505050505081526020016002820154815260200160038201548152505081526020019060010190610a41565b50505050905090565b60016020528060005260406000206000915090508054610b9790611658565b80601f0160208091040260200160405190810160405280929190818152602001828054610bc390611658565b8015610c105780601f10610be557610100808354040283529160200191610c10565b820191906000526020600020905b815481529060010190602001808311610bf357829003601f168201915b505050505081565b6000600160003373ffffffffffffffffffffffffffffffffffffffff1673ffffffffffffffffffffffffffffffffffffffff1681526020019081526020016000208054610c6490611658565b905014610ca6576040517f08c379a0000000000000000000000000000000000000000000000000000000008152600401610c9d90611b88565b60405180910390fd5b600073ffffffffffffffffffffffffffffffffffffffff16600285604051610cce9190611bd9565b908152602001604051809103902060000160009054906101000a900473ffffffffffffffffffffffffffffffffffffffff1673ffffffffffffffffffffffffffffffffffffffff1614610d56576040517f08c379a0000000000000000000000000000000000000000000000000000000008152600401610d4d90611c62565b60405180910390fd5b6040518060a001604052803373ffffffffffffffffffffffffffffffffffffffff16815260200184815260200185815260200183815260200182815250600285604051610da39190611bd9565b908152602001604051809103902060008201518160000160006101000a81548173ffffffffffffffffffffffffffffffffffffffff021916908373ffffffffffffffffffffffffffffffffffffffff1602179055506020820151816001019081610e0d91906119c5565b506040820151816002019081610e2391906119c5565b506060820151816003019081610e3991906119c5565b506080820151816004019081610e4f91906119c5565b5090505083600160003373ffffffffffffffffffffffffffffffffffffffff1673ffffffffffffffffffffffffffffffffffffffff1681526020019081526020016000209081610e9f91906119c5565b5050505050565b6040518060a00160405280600073ffffffffffffffffffffffffffffffffffffffff168152602001606081526020016060815260200160608152602001606081525090565b6000604051905090565b600080fd5b600080fd5b6000819050919050565b610f1281610eff565b8114610f1d57600080fd5b50565b600081359050610f2f81610f09565b92915050565b600060208284031215610f4b57610f4a610ef5565b5b6000610f5984828501610f20565b91505092915050565b600073ffffffffffffffffffffffffffffffffffffffff82169050919050565b6000610f8d82610f62565b9050919050565b610f9d81610f82565b82525050565b600081519050919050565b600082825260208201905092915050565b60005b83811015610fdd578082015181840152602081019050610fc2565b60008484015250505050565b6000601f19601f8301169050919050565b600061100582610fa3565b61100f8185610fae565b935061101f818560208601610fbf565b61102881610fe9565b840191505092915050565b61103c81610eff565b82525050565b60006080820190506110576000830187610f94565b81810360208301526110698186610ffa565b90506110786040830185611033565b6110856060830184611033565b95945050505050565b600080fd5b600080fd5b7f4e487b7100000000000000000000000000000000000000000000000000000000600052604160045260246000fd5b6110d082610fe9565b810181811067ffffffffffffffff821117156110ef576110ee611098565b5b80604052505050565b6000611102610eeb565b905061110e82826110c7565b919050565b600067ffffffffffffffff82111561112e5761112d611098565b5b61113782610fe9565b9050602081019050919050565b82818337600083830152505050565b600061116661116184611113565b6110f8565b90508281526020810184848401111561118257611181611093565b5b61118d848285611144565b509392505050565b600082601f8301126111aa576111a961108e565b5b81356111ba848260208601611153565b91505092915050565b6000602082840312156111d9576111d8610ef5565b5b600082013567ffffffffffffffff8111156111f7576111f6610efa565b5b61120384828501611195565b91505092915050565b600060a0820190506112216000830188610f94565b81810360208301526112338187610ffa565b905081810360408301526112478186610ffa565b9050818103606083015261125b8185610ffa565b9050818103608083015261126f8184610ffa565b90509695505050505050565b61128481610f82565b811461128f57600080fd5b50565b6000813590506112a18161127b565b92915050565b6000602082840312156112bd576112bc610ef5565b5b60006112cb84828501611292565b91505092915050565b6112dd81610f82565b82525050565b600082825260208201905092915050565b60006112ff82610fa3565b61130981856112e3565b9350611319818560208601610fbf565b61132281610fe9565b840191505092915050565b600060a08301600083015161134560008601826112d4565b506020830151848203602086015261135d82826112f4565b9150506040830151848203604086015261137782826112f4565b9150506060830151848203606086015261139182826112f4565b915050608083015184820360808601526113ab82826112f4565b9150508091505092915050565b600060208201905081810360008301526113d2818461132d565b905092915050565b600081519050919050565b600082825260208201905092915050565b6000819050602082019050919050565b61140f81610eff565b82525050565b600060808301600083015161142d60008601826112d4565b506020830151848203602086015261144582826112f4565b915050604083015161145a6040860182611406565b50606083015161146d6060860182611406565b508091505092915050565b60006114848383611415565b905092915050565b6000602082019050919050565b60006114a4826113da565b6114ae81856113e5565b9350836020820285016114c0856113f6565b8060005b858110156114fc57848403895281516114dd8582611478565b94506114e88361148c565b925060208a019950506001810190506114c4565b50829750879550505050505092915050565b600060208201905081810360008301526115288184611499565b905092915050565b6000602082019050818103600083015261154a8184610ffa565b905092915050565b6000806000806080858703121561156c5761156b610ef5565b5b600085013567ffffffffffffffff81111561158a57611589610efa565b5b61159687828801611195565b945050602085013567ffffffffffffffff8111156115b7576115b6610efa565b5b6115c387828801611195565b935050604085013567ffffffffffffffff8111156115e4576115e3610efa565b5b6115f087828801611195565b925050606085013567ffffffffffffffff81111561161157611610610efa565b5b61161d87828801611195565b91505092959194509250565b7f4e487b7100000000000000000000000000000000000000000000000000000000600052602260045260246000fd5b6000600282049050600182168061167057607f821691505b60208210810361168357611682611629565b5b50919050565b7f596f75206d757374207369676e20757020746f20706f7374206120647765657460008201527f2e00000000000000000000000000000000000000000000000000000000000000602082015250565b60006116e5602183610fae565b91506116f082611689565b604082019050919050565b60006020820190508181036000830152611714816116d8565b9050919050565b7f596f75206d75737420777269746520736f6d657468696e6720746f206477656560008201527f742e000000000000000000000000000000000000000000000000000000000000602082015250565b6000611777602283610fae565b91506117828261171b565b604082019050919050565b600060208201905081810360008301526117a68161176a565b9050919050565b7f596f757220647765657420697320746f6f206c6f6e672e000000000000000000600082015250565b60006117e3601783610fae565b91506117ee826117ad565b602082019050919050565b60006020820190508181036000830152611812816117d6565b9050919050565b60008190508160005260206000209050919050565b60006020601f8301049050919050565b600082821b905092915050565b60006008830261187b7fffffffffffffffffffffffffffffffffffffffffffffffffffffffffffffffff8261183e565b611885868361183e565b95508019841693508086168417925050509392505050565b6000819050919050565b60006118c26118bd6118b884610eff565b61189d565b610eff565b9050919050565b6000819050919050565b6118dc836118a7565b6118f06118e8826118c9565b84845461184b565b825550505050565b600090565b6119056118f8565b6119108184846118d3565b505050565b5b81811015611934576119296000826118fd565b600181019050611916565b5050565b601f8211156119795761194a81611819565b6119538461182e565b81016020851015611962578190505b61197661196e8561182e565b830182611915565b50505b505050565b600082821c905092915050565b600061199c6000198460080261197e565b1980831691505092915050565b60006119b5838361198b565b9150826002028217905092915050565b6119ce82610fa3565b67ffffffffffffffff8111156119e7576119e6611098565b5b6119f18254611658565b6119fc828285611938565b600060209050601f831160018114611a2f5760008415611a1d578287015190505b611a2785826119a9565b865550611a8f565b601f198416611a3d86611819565b60005b82811015611a6557848901518255600182019150602085019450602081019050611a40565b86831015611a825784890151611a7e601f89168261198b565b8355505b6001600288020188555050505b505050505050565b600081905092915050565b60008154611aaf81611658565b611ab98186611a97565b94506001821660008114611ad45760018114611ae957611b1c565b60ff1983168652811515820286019350611b1c565b611af285611819565b60005b83811015611b1457815481890152600182019150602081019050611af5565b838801955050505b50505092915050565b6000611b318284611aa2565b915081905092915050565b7f5573657220616c72656164792065786973747300000000000000000000000000600082015250565b6000611b72601383610fae565b9150611b7d82611b3c565b602082019050919050565b60006020820190508181036000830152611ba181611b65565b9050919050565b6000611bb382610fa3565b611bbd8185611a97565b9350611bcd818560208601610fbf565b80840191505092915050565b6000611be58284611ba8565b915081905092915050565b7f557365726e616d652069732074616b656e2c20506c656173652074727920616e60008201527f6f74686572206f6e650000000000000000000000000000000000000000000000602082015250565b6000611c4c602983610fae565b9150611c5782611bf0565b604082019050919050565b60006020820190508181036000830152611c7b81611c3f565b905091905056fea26469706673582212202457a9eec60cba90386a8bf3d2ddd0357b999584c22999e4745dbf23689b27ac64736f6c63430008110033",
  "linkReferences": {},
  "deployedLinkReferences": {}
}